:1007A2007580FFC2A0D2A1D2A2AF80C2A2EF20E781
:0107B200F650
:0107B3002223
:1007D800AE071207A2C2A0C2A18E80D2A2C2A222D4
:1007E800AE071207A2D2A0C2A18E80D2A2C2A222B4
:1007B400ED7004AC078004EF2440FCEC4480FF029D
:0207C40007D854
:1006A0008B3E8A3F89401207B4AB3EAA3FA9401255
:1006B000000E60130540E5407002053F14F912007A
:0806C0000EFF1207E880E222A0
:050833007F0F0207D851
:050838007F0C0207D84F
:10078E007F381207D87F0C1207D87F061207D87F42
:04079E00010207D875
:10073600AE07AC03ED6003430640430680AF0612E6
:0707460007D8AF040207D839
:1006C8008F16AA03A9050516EAC4540F2430FB1295
:0D06D8000736EA540F2430FBAF1602073638
:0A0813005744003A005344002D0042
:10077900C1000114000115000709323A0C1A0502DB
:04078900140108004F
:06071D00C292C290D292CC
:10072300E4FEC290EF139291D290EFC313FF0EBE7B
:0207330008F0CC
:0107350022A1
:10076400E4FEC290EFC313FF309103430780D2909D
:040774000EBE08EEBF
:01077800225E
:0800030012071DAF05020723DF
:06082D0012071D02076422
:07082600E4FD7F8E020003D8
:0C0807007D807F8E120003C292C29022FE
:02063B00AC070A
:10063D00120826E4FB74092BF8E6FF75F00A84FA1C
:10064D00EF75F00A84A6F0EAC454F0FF74092BF894
:10065D00EF26F6AF0474092BF8E6FD1200030C0C1F
:07066D000BBB07D1020807D7
:02070200AC0742
:10070400120826E4FDAF0412082D74092DF8A6077B
:090714000C0C0DBD07EF020807F3
:10024300D2AF7F0A7E001205C212078E1206747F98
:100253008012063B1207F81207F81207F87BFF7AA1
:10026300087913E4FDFF1206A07BFF7A087916E4F0
:10027300FD7F021206A07BFF7A0879187D01E4FF57
:100283001206A07BFF7A0879167D017F021206A071
:100293007F811207021206747B007A0079391204F7
:1002A3009992013000EA30015FE53975F00A8475EF
:1002B300F00A84E5F02430F521E53975F00A84E588
:1002C300F02430F5227B007A0079217D017F03122F
:1002D30006A0E53B75F00A8475F00A84E5F0243046
:1002E300F521E53B75F00A84E5F02430F522E4F5C9
:1002F30023FB7A007921FD7F031206A07512008586
:100303003B13751000853911E50FC4540F2430F5E4
:100313002DE50F540F2430F52E7B007A00792DE460
:10032300FD7F061206A07BFF7A08791BE4FD7F0898
:100333001206A0E50DC4540F2430F52DE50D540F1E
:100343002430F52E7B007A00792DE4FD7F09120617
:10035300A07BFF7A08791BE4FD7F0B1206A0E50C56
:10036300C4540F2430F52DE50C540F2430F52E7BA7
:10037300007A00792DE4FD7F0C1206A0E50BC4542E
:100383000F2430F52DE50B540F2430F52E7B007A26
:1003930000792D7D017F061206A07BFF7A0879166E
:1003A3007D017F081206A0E50AC4540F2430F52D01
:1003B300E50A540F2430F52E7B007A00792D7D0158
:1003C3007F091206A07BFF7A0879167D017F0B1245
:1003D30006A0E509C4540F2430F52DE509540F2474
:1003E30030F52E7B007A00792D7D017F0C1206A05B
:0303F30002029370
:1005C200754100754010753F0E753E00E4FCFDABB1
:1005D20041AA40A93FA83E1200BEE47BE87A03F993
:1005E200F81201498F418E408D3F8C3EC3E4954104
:1005F200F541E49540F5407401953FF53FE4953EA1
:10060200F53EE541240CF541E43540F540E4353F43
:10061200F53FE4353EF53EAF41AE40AD3FFC7808D4
:100622001201DB8F148541155389F043890185142A
:080632008C85158AD2A9D28C37
:01063A00229D
:0A03F6008B478A4889498C4A8D4BD9
:10040000E4F54CF54DC3E54A64809480501CC3E488
:10041000954BF54BE4954AF54A0549E549700205C7
:100420004814F9742D120054054DAE4AAF4B7C00B0
:100430007D0A120088AF05AE4C054C744E2EF8A60E
:1004400007AE4AAF4B7C007D0A1200888E4A8F4B64
:10045000D3E54B9400E54A6480948050CDE54C256B
:100460004DF54DAF4C154CD3EF64809480401D7416
:100470004E254CF8E62430FFAB470549E549AA482C
:100480007002054814F9EF12005480D7AB47AA4810
:08049000A949E4120054AF4D2C
:010498002241
:03000B000206E505
:0406E500C0E0C0D0E1
:1006E90085148C85158A0508E508C3940A4005D246
:0406F9000075080080
:0506FD00D0D0D0E03276
:10067400E4F53ED2B7C2B77F141207C6D2B7120848
:100684001D30B702C32220B70BE53EC394C8500403
:0B069400053E80F212081D12081DD365
:01069F002238
:060499008B3E8A3F894002
:10049F00E4F541F543F544754501F546F5427545DB
:1004AF0080E545603320B70BE543C394C85004057E
:1004BF004380F212083DE54530B70442418003F412
:1004CF00524130B70BE544C394C85004054480F241
:1004DF00E545C313F54580C9AB3EAA3FA940854208
:1004EF0082758300E541120066E4F5410542E5425D
:1004FF00C3940540A9E4FFAB3EAA3FA9408F827584
:10050F0083001200272546F5460FBF04EAAB3EAA2B
:10051F003FA940900004120027FFE546FEF546EE86
:06052F00B50702D322C350
:0105350022A3
:1007C600EFD39400400B7E667D03DDFEDEFA1F80CC
:0107D600EF33
:0107D70022FF
:04083D007F0CDFFE4F
:010841002294
:08081D007F037E04DEFEDFFA1A
:0108250022B0
:0E07F8007F9F7E86EF1FAC0670011E4C70F6D0
:0108060022CF
:10074D007D737C00ED1D70011C144C70F7EF1F7054
:06075D00011E144E70EABB
:010763002273
:03000000020536C0
:0C053600787FE4F6D8FD75815302057D46
:10000E00BB010689828A83E0225002E722BBFE02F0
:09001E00E32289828A83E4932223
:10002700BB010CE58229F582E5833AF583E022508E
:1000370006E92582F8E622BBFE06E92582F8E222D8
:0D004700E58229F582E5833AF583E49322F2
:10005400BB010689828A83F0225002F722BBFE018B
:02006400F32285
:10006600F8BB010DE58229F582E5833AF583E8F0D0
:10007600225006E92582C8F622BBFE05E92582C87C
:02008600F22264
:10008800C2D5EC30E709B2D5E4C39DFDE49CFCEE93
:1000980030E715B2D5E4C39FFFE49EFE1201EEC31C
:1000A800E49DFDE49CFC80031201EE30D507C3E417
:0600B8009FFFE49EFE2202
:1000BE00E88FF0A4CC8BF0A42CFCE98EF0A42CFCE1
:1000CE008AF0EDA42CFCEA8EF0A4CDA8F08BF0A45F
:1000DE002DCC3825F0FDE98FF0A42CCD35F0FCEBBE
:1000EE008EF0A4FEA9F0EB8FF0A4CFC5F02ECD3983
:0F00FE00FEE43CFCEAA42DCE35F0FDE43CFC22F0
:10010D0075F008758200EF2FFFEE33FECD33CDCCA9
:10011D0033CCC58233C5829BED9AEC99E58298402C
:10012D000CF582EE9BFEED9AFDEC99FC0FD5F0D609
:10013D00E4CEFBE4CDFAE4CCF9A88222B800C1B933
:10014D000059BA002DEC8BF084CFCECDFCE5F0CB71
:10015D00F97818EF2FFFEE33FEED33FDEC33FCEBAA
:10016D0033FB10D703994004EB99FB0FD8E5E4F965
:10017D00FA227818EF2FFFEE33FEED33FDEC33FC52
:10018D00C933C910D7059BE99A4007EC9BFCE99A46
:10019D00F90FD8E0E4C9FAE4CCFB2275F010EF2F8B
:1001AD00FFEE33FEED33FDCC33CCC833C810D7078B
:1001BD009BEC9AE899400AED9BFDEC9AFCE899F8C6
:0E01CD000FD5F0DAE4CDFBE4CCFAE4C8F92259
:1001DB00E8600FECC313FCED13FDEE13FEEF13FF02
:0301EB00D8F12226
:10054200020243E493A3F8E493A34003F68001F28A
:1005520008DFF48029E493A3F85407240CC8C333BA
:10056200C4540F4420C8834004F456800146F6DF89
:10057200E4800B0102040810204080900779E47E99
:10058200019360BCA3FF543F30E509541FFEE4937E
:10059200A360010ECF54C025E060A840B8E493A345
:1005A200FAE493A3F8E493A3C8C582C8CAC583CA70
:1005B200F0A3C8C582C8CAC583CADFE9DEE780BE28
:01078D00006B
:1001EE00BC000BBE0029EF8DF084FFADF022E4CCF5
:1001FE00F875F008EF2FFFEE33FEEC33FCEE9DECBE
:10020E00984005FCEE9DFE0FD5F0E9E4CEFD22ED03
:10021E00F8F5F0EE8420D21CFEADF075F008EF2F4D
:10022E00FFED33FD4007985006D5F0F222C398FD3E
:05023E000FD5F0EA22DB
:00000001FF
